{
  "contractName": "HashStorage",
  "abi": [
    {
      "anonymous": false,
      "inputs": [
        {
          "indexed": true,
          "internalType": "bytes32",
          "name": "hash",
          "type": "bytes32"
        },
        {
          "indexed": false,
          "internalType": "string",
          "name": "fileName",
          "type": "string"
        },
        {
          "indexed": false,
          "internalType": "string",
          "name": "fileType",
          "type": "string"
        },
        {
          "indexed": false,
          "internalType": "string",
          "name": "fileSize",
          "type": "string"
        },
        {
          "indexed": false,
          "internalType": "uint256",
          "name": "timestamp",
          "type": "uint256"
        }
      ],
      "name": "HashStored",
      "type": "event"
    },
    {
      "inputs": [
        {
          "internalType": "uint256",
          "name": "",
          "type": "uint256"
        }
      ],
      "name": "allHashes",
      "outputs": [
        {
          "internalType": "bytes32",
          "name": "",
          "type": "bytes32"
        }
      ],
      "stateMutability": "view",
      "type": "function",
      "constant": true
    },
    {
      "inputs": [
        {
          "internalType": "bytes32",
          "name": "",
          "type": "bytes32"
        }
      ],
      "name": "hashRecords",
      "outputs": [
        {
          "internalType": "bytes32",
          "name": "hash",
          "type": "bytes32"
        },
        {
          "internalType": "string",
          "name": "fileName",
          "type": "string"
        },
        {
          "internalType": "string",
          "name": "fileType",
          "type": "string"
        },
        {
          "internalType": "string",
          "name": "fileSize",
          "type": "string"
        },
        {
          "internalType": "uint256",
          "name": "timestamp",
          "type": "uint256"
        },
        {
          "internalType": "bool",
          "name": "exists",
          "type": "bool"
        }
      ],
      "stateMutability": "view",
      "type": "function",
      "constant": true
    },
    {
      "inputs": [
        {
          "internalType": "bytes32",
          "name": "_hash",
          "type": "bytes32"
        },
        {
          "internalType": "string",
          "name": "_fileName",
          "type": "string"
        },
        {
          "internalType": "string",
          "name": "_fileType",
          "type": "string"
        },
        {
          "internalType": "string",
          "name": "_fileSize",
          "type": "string"
        }
      ],
      "name": "storeHash",
      "outputs": [],
      "stateMutability": "nonpayable",
      "type": "function"
    },
    {
      "inputs": [
        {
          "internalType": "bytes32",
          "name": "_hash",
          "type": "bytes32"
        }
      ],
      "name": "getHashData",
      "outputs": [
        {
          "internalType": "bytes32",
          "name": "",
          "type": "bytes32"
        },
        {
          "internalType": "string",
          "name": "",
          "type": "string"
        },
        {
          "internalType": "string",
          "name": "",
          "type": "string"
        },
        {
          "internalType": "string",
          "name": "",
          "type": "string"
        },
        {
          "internalType": "uint256",
          "name": "",
          "type": "uint256"
        }
      ],
      "stateMutability": "view",
      "type": "function",
      "constant": true
    },
    {
      "inputs": [],
      "name": "getAllHashes",
      "outputs": [
        {
          "internalType": "bytes32[]",
          "name": "",
          "type": "bytes32[]"
        }
      ],
      "stateMutability": "view",
      "type": "function",
      "constant": true
    },
    {
      "inputs": [
        {
          "internalType": "bytes32",
          "name": "_hash",
          "type": "bytes32"
        }
      ],
      "name": "hashExists",
      "outputs": [
        {
          "internalType": "bool",
          "name": "",
          "type": "bool"
        }
      ],
      "stateMutability": "view",
      "type": "function",
      "constant": true
    }
  ],
  "bytecode": "0x608060405234801561001057600080fd5b506111e9806100206000396000f3fe608060405234801561001057600080fd5b50600436106100625760003560e01c8063313ef09614610067578063412f12cd1461009757806352dc2185146100cb578063b535b5c314610100578063d3b9676814610130578063fe99f7421461014c575b600080fd5b610081600480360381019061007c9190610866565b61016a565b60405161008e91906108ac565b60405180910390f35b6100b160048036038101906100ac91906108f3565b61018e565b6040516100c29594939291906109bf565b60405180910390f35b6100e560048036038101906100e091906108f3565b61042c565b6040516100f796959493929190610a42565b60405180910390f35b61011a600480360381019061011591906108f3565b61060d565b6040516101279190610ab8565b60405180910390f35b61014a60048036038101906101459190610c08565b610639565b005b6101546107c4565b6040516101619190610d81565b60405180910390f35b6001818154811061017a57600080fd5b906000526020600020016000915090505481565b60006060806060600080600087815260200190815260200160002060050160009054906101000a900460ff166101f9576040517f08c379a00000000000000000000000000000000000000000000000000000000081526004016101f090610def565b60405180910390fd5b60008060008881526020019081526020016000206040518060c00160405290816000820154815260200160018201805461023290610e3e565b80601f016020809104026020016040519081016040528092919081815260200182805461025e90610e3e565b80156102ab5780601f10610280576101008083540402835291602001916102ab565b820191906000526020600020905b81548152906001019060200180831161028e57829003601f168201915b505050505081526020016002820180546102c490610e3e565b80601f01602080910402602001604051908101604052809291908181526020018280546102f090610e3e565b801561033d5780601f106103125761010080835404028352916020019161033d565b820191906000526020600020905b81548152906001019060200180831161032057829003601f168201915b5050505050815260200160038201805461035690610e3e565b80601f016020809104026020016040519081016040528092919081815260200182805461038290610e3e565b80156103cf5780601f106103a4576101008083540402835291602001916103cf565b820191906000526020600020905b8154815290600101906020018083116103b257829003601f168201915b50505050508152602001600482015481526020016005820160009054906101000a900460ff161515151581525050905080600001518160200151826040015183606001518460800151955095509550955095505091939590929450565b600060205280600052604060002060009150905080600001549080600101805461045590610e3e565b80601f016020809104026020016040519081016040528092919081815260200182805461048190610e3e565b80156104ce5780601f106104a3576101008083540402835291602001916104ce565b820191906000526020600020905b8154815290600101906020018083116104b157829003601f168201915b5050505050908060020180546104e390610e3e565b80601f016020809104026020016040519081016040528092919081815260200182805461050f90610e3e565b801561055c5780601f106105315761010080835404028352916020019161055c565b820191906000526020600020905b81548152906001019060200180831161053f57829003601f168201915b50505050509080600301805461057190610e3e565b80601f016020809104026020016040519081016040528092919081815260200182805461059d90610e3e565b80156105ea5780601f106105bf576101008083540402835291602001916105ea565b820191906000526020600020905b8154815290600101906020018083116105cd57829003601f168201915b5050505050908060040154908060050160009054906101000a900460ff16905086565b600080600083815260200190815260200160002060050160009054906101000a900460ff169050919050565b60008085815260200190815260200160002060050160009054906101000a900460ff161561069c576040517f08c379a000000000000000000000000000000000000000000000000000000000815260040161069390610ebb565b60405180910390fd5b6040518060c00160405280858152602001848152602001838152602001828152602001428152602001600115158152506000808681526020019081526020016000206000820151816000015560208201518160010190816106fd9190611087565b5060408201518160020190816107139190611087565b5060608201518160030190816107299190611087565b506080820151816004015560a08201518160050160006101000a81548160ff0219169083151502179055509050506001849080600181540180825580915050600190039060005260206000200160009091909190915055837fd905d163818cadb61e95e77d7b38bca94756155b97e4938898987ad1abcb2676848484426040516107b69493929190611159565b60405180910390a250505050565b6060600180548060200260200160405190810160405280929190818152602001828054801561081257602002820191906000526020600020905b8154815260200190600101908083116107fe575b5050505050905090565b6000604051905090565b600080fd5b600080fd5b6000819050919050565b61084381610830565b811461084e57600080fd5b50565b6000813590506108608161083a565b92915050565b60006020828403121561087c5761087b610826565b5b600061088a84828501610851565b91505092915050565b6000819050919050565b6108a681610893565b82525050565b60006020820190506108c1600083018461089d565b92915050565b6108d081610893565b81146108db57600080fd5b50565b6000813590506108ed816108c7565b92915050565b60006020828403121561090957610908610826565b5b6000610917848285016108de565b91505092915050565b600081519050919050565b600082825260208201905092915050565b60005b8381101561095a57808201518184015260208101905061093f565b60008484015250505050565b6000601f19601f8301169050919050565b600061098282610920565b61098c818561092b565b935061099c81856020860161093c565b6109a581610966565b840191505092915050565b6109b981610830565b82525050565b600060a0820190506109d4600083018861089d565b81810360208301526109e68187610977565b905081810360408301526109fa8186610977565b90508181036060830152610a0e8185610977565b9050610a1d60808301846109b0565b9695505050505050565b60008115159050919050565b610a3c81610a27565b82525050565b600060c082019050610a57600083018961089d565b8181036020830152610a698188610977565b90508181036040830152610a7d8187610977565b90508181036060830152610a918186610977565b9050610aa060808301856109b0565b610aad60a0830184610a33565b979650505050505050565b6000602082019050610acd6000830184610a33565b92915050565b600080fd5b600080fd5b7f4e487b7100000000000000000000000000000000000000000000000000000000600052604160045260246000fd5b610b1582610966565b810181811067ffffffffffffffff82111715610b3457610b33610add565b5b80604052505050565b6000610b4761081c565b9050610b538282610b0c565b919050565b600067ffffffffffffffff821115610b7357610b72610add565b5b610b7c82610966565b9050602081019050919050565b82818337600083830152505050565b6000610bab610ba684610b58565b610b3d565b905082815260208101848484011115610bc757610bc6610ad8565b5b610bd2848285610b89565b509392505050565b600082601f830112610bef57610bee610ad3565b5b8135610bff848260208601610b98565b91505092915050565b60008060008060808587031215610c2257610c21610826565b5b6000610c30878288016108de565b945050602085013567ffffffffffffffff811115610c5157610c5061082b565b5b610c5d87828801610bda565b935050604085013567ffffffffffffffff811115610c7e57610c7d61082b565b5b610c8a87828801610bda565b925050606085013567ffffffffffffffff811115610cab57610caa61082b565b5b610cb787828801610bda565b91505092959194509250565b600081519050919050565b600082825260208201905092915050565b6000819050602082019050919050565b610cf881610893565b82525050565b6000610d0a8383610cef565b60208301905092915050565b6000602082019050919050565b6000610d2e82610cc3565b610d388185610cce565b9350610d4383610cdf565b8060005b83811015610d74578151610d5b8882610cfe565b9750610d6683610d16565b925050600181019050610d47565b5085935050505092915050565b60006020820190508181036000830152610d9b8184610d23565b905092915050565b7f4861736820646f6573206e6f7420657869737400000000000000000000000000600082015250565b6000610dd960138361092b565b9150610de482610da3565b602082019050919050565b60006020820190508181036000830152610e0881610dcc565b9050919050565b7f4e487b7100000000000000000000000000000000000000000000000000000000600052602260045260246000fd5b60006002820490506001821680610e5657607f821691505b602082108103610e6957610e68610e0f565b5b50919050565b7f4861736820616c72656164792065786973747300000000000000000000000000600082015250565b6000610ea560138361092b565b9150610eb082610e6f565b602082019050919050565b60006020820190508181036000830152610ed481610e98565b9050919050565b60008190508160005260206000209050919050565b60006020601f8301049050919050565b600082821b905092915050565b600060088302610f3d7fffffffffffffffffffffffffffffffffffffffffffffffffffffffffffffffff82610f00565b610f478683610f00565b95508019841693508086168417925050509392505050565b6000819050919050565b6000610f84610f7f610f7a84610830565b610f5f565b610830565b9050919050565b6000819050919050565b610f9e83610f69565b610fb2610faa82610f8b565b848454610f0d565b825550505050565b600090565b610fc7610fba565b610fd2818484610f95565b505050565b5b81811015610ff657610feb600082610fbf565b600181019050610fd8565b5050565b601f82111561103b5761100c81610edb565b61101584610ef0565b81016020851015611024578190505b61103861103085610ef0565b830182610fd7565b50505b505050565b600082821c905092915050565b600061105e60001984600802611040565b1980831691505092915050565b6000611077838361104d565b9150826002028217905092915050565b61109082610920565b67ffffffffffffffff8111156110a9576110a8610add565b5b6110b38254610e3e565b6110be828285610ffa565b600060209050601f8311600181146110f157600084156110df578287015190505b6110e9858261106b565b865550611151565b601f1984166110ff86610edb565b60005b8281101561112757848901518255600182019150602085019450602081019050611102565b868310156111445784890151611140601f89168261104d565b8355505b6001600288020188555050505b505050505050565b600060808201905081810360008301526111738187610977565b905081810360208301526111878186610977565b9050818103604083015261119b8185610977565b90506111aa60608301846109b0565b9594505050505056fea26469706673582212206600c95332f22dffe508a780a7b67d1477d8f28c25117e5e985b873eca3f9aa964736f6c63430008130033",
  "immutableReferences": {},
  "source": "// SPDX-License-Identifier: MIT\r\npragma solidity ^0.8.0;\r\n\r\ncontract HashStorage {\r\n    // Structure to store hash and file information\r\n    struct HashData {\r\n        bytes32 hash;\r\n        string fileName;\r\n        string fileType;\r\n        string fileSize;\r\n        uint256 timestamp;\r\n        bool exists;\r\n    }\r\n    \r\n    // Mapping to store HashData by hash\r\n    mapping(bytes32 => HashData) public hashRecords;\r\n    \r\n    // Array to store all hashes for retrieval\r\n    bytes32[] public allHashes;\r\n    \r\n    // Event to emit when new hash is stored\r\n    event HashStored(\r\n        bytes32 indexed hash, \r\n        string fileName, \r\n        string fileType,\r\n        string fileSize,\r\n        uint256 timestamp\r\n    );\r\n\r\n    // Function to store a hash with file information\r\n    function storeHash(\r\n        bytes32 _hash, \r\n        string memory _fileName,\r\n        string memory _fileType,\r\n        string memory _fileSize\r\n    ) public {\r\n        require(!hashRecords[_hash].exists, \"Hash already exists\");\r\n        \r\n        hashRecords[_hash] = HashData({\r\n            hash: _hash,\r\n            fileName: _fileName,\r\n            fileType: _fileType,\r\n            fileSize: _fileSize,\r\n            timestamp: block.timestamp,\r\n            exists: true\r\n        });\r\n        \r\n        allHashes.push(_hash);\r\n        emit HashStored(_hash, _fileName, _fileType, _fileSize, block.timestamp);\r\n    }\r\n    \r\n    // Function to retrieve hash data\r\n    function getHashData(bytes32 _hash) public view returns (\r\n        bytes32,\r\n        string memory,\r\n        string memory,\r\n        string memory,\r\n        uint256\r\n    ) {\r\n        require(hashRecords[_hash].exists, \"Hash does not exist\");\r\n        \r\n        HashData memory data = hashRecords[_hash];\r\n        return (\r\n            data.hash,\r\n            data.fileName,\r\n            data.fileType,\r\n            data.fileSize,\r\n            data.timestamp\r\n        );\r\n    }\r\n    \r\n    // Function to get all stored hashes\r\n    function getAllHashes() public view returns (bytes32[] memory) {\r\n        return allHashes;\r\n    }\r\n    \r\n    // Function to check if hash exists\r\n    function hashExists(bytes32 _hash) public view returns (bool) {\r\n        return hashRecords[_hash].exists;\r\n    }\r\n}",
  "sourcePath": "D:\\Dev\\Ethereum\\IP-Protection\\contracts\\HashStorage.sol",
  "compiler": {
    "name": "solc",
    "version": "0.8.19+commit.7dd6d404.Emscripten.clang"
  },
  "schemaVersion": "3.4.16",
  "updatedAt": "2025-04-14T14:13:34.591Z",
  "networkType": "ethereum",
  "devdoc": {
    "kind": "dev",
    "methods": {},
    "version": 1
  },
  "userdoc": {
    "kind": "user",
    "methods": {},
    "version": 1
  }
}