{
  "contractName": "Election",
  "abi": [
    {
      "inputs": [],
      "stateMutability": "nonpayable",
      "type": "constructor"
    },
    {
      "inputs": [
        {
          "internalType": "uint256",
          "name": "",
          "type": "uint256"
        }
      ],
      "name": "candidates",
      "outputs": [
        {
          "internalType": "string",
          "name": "name",
          "type": "string"
        },
        {
          "internalType": "uint256",
          "name": "voteCount",
          "type": "uint256"
        }
      ],
      "stateMutability": "view",
      "type": "function"
    },
    {
      "inputs": [],
      "name": "candidatesCount",
      "outputs": [
        {
          "internalType": "uint256",
          "name": "",
          "type": "uint256"
        }
      ],
      "stateMutability": "view",
      "type": "function"
    },
    {
      "inputs": [],
      "name": "electionLeader",
      "outputs": [
        {
          "internalType": "address",
          "name": "",
          "type": "address"
        }
      ],
      "stateMutability": "view",
      "type": "function"
    },
    {
      "inputs": [
        {
          "internalType": "address",
          "name": "",
          "type": "address"
        }
      ],
      "name": "voters",
      "outputs": [
        {
          "internalType": "bool",
          "name": "voted",
          "type": "bool"
        },
        {
          "internalType": "uint256",
          "name": "vote",
          "type": "uint256"
        }
      ],
      "stateMutability": "view",
      "type": "function"
    },
    {
      "inputs": [
        {
          "internalType": "string",
          "name": "_name",
          "type": "string"
        }
      ],
      "name": "addCandidate",
      "outputs": [],
      "stateMutability": "nonpayable",
      "type": "function"
    },
    {
      "inputs": [
        {
          "internalType": "address",
          "name": "_voter",
          "type": "address"
        }
      ],
      "name": "registerVoters",
      "outputs": [],
      "stateMutability": "nonpayable",
      "type": "function"
    },
    {
      "inputs": [
        {
          "internalType": "uint256",
          "name": "_candidateIndex",
          "type": "uint256"
        }
      ],
      "name": "castVote",
      "outputs": [],
      "stateMutability": "nonpayable",
      "type": "function"
    },
    {
      "inputs": [],
      "name": "winningCandidate",
      "outputs": [
        {
          "internalType": "string",
          "name": "winnerName",
          "type": "string"
        }
      ],
      "stateMutability": "view",
      "type": "function"
    }
  ],
  "bytecode": "0x6080604052600060015534801561001557600080fd5b50336000806101000a81548173ffffffffffffffffffffffffffffffffffffffff021916908373ffffffffffffffffffffffffffffffffffffffff1602179055506110e6806100656000396000f3fe608060405234801561001057600080fd5b50600436106100885760003560e01c8063a3ec138d1161005b578063a3ec138d14610114578063d174d4f914610145578063d28178d714610163578063ed8a16081461018157610088565b80632d35a8a21461008d5780633477ee2e146100ab5780633eb76b9c146100dc578063462e91ec146100f8575b600080fd5b61009561019d565b6040516100a291906107ad565b60405180910390f35b6100c560048036038101906100c09190610808565b6101a3565b6040516100d39291906108c5565b60405180910390f35b6100f660048036038101906100f19190610808565b61025f565b005b610112600480360381019061010d9190610a2a565b610416565b005b61012e60048036038101906101299190610ad1565b610522565b60405161013c929190610b19565b60405180910390f35b61014d610553565b60405161015a9190610b51565b60405180910390f35b61016b610577565b6040516101789190610b6c565b60405180910390f35b61019b60048036038101906101969190610ad1565b6106a8565b005b60015481565b600381815481106101b357600080fd5b90600052602060002090600202016000915090508060000180546101d690610bbd565b80601f016020809104026020016040519081016040528092919081815260200182805461020290610bbd565b801561024f5780601f106102245761010080835404028352916020019161024f565b820191906000526020600020905b81548152906001019060200180831161023257829003601f168201915b5050505050908060010154905082565b600260003373ffffffffffffffffffffffffffffffffffffffff1673ffffffffffffffffffffffffffffffffffffffff16815260200190815260200160002060000160009054906101000a900460ff16156102ef576040517f08c379a00000000000000000000000000000000000000000000000000000000081526004016102e690610c3a565b60405180910390fd5b600060015411610334576040517f08c379a000000000000000000000000000000000000000000000000000000000815260040161032b90610ca6565b60405180910390fd5b6001600260003373ffffffffffffffffffffffffffffffffffffffff1673ffffffffffffffffffffffffffffffffffffffff16815260200190815260200160002060000160006101000a81548160ff02191690831515021790555080600260003373ffffffffffffffffffffffffffffffffffffffff1673ffffffffffffffffffffffffffffffffffffffff168152602001908152602001600020600101819055506001600382815481106103ec576103eb610cc6565b5b9060005260206000209060020201600101600082825461040c9190610d24565b9250508190555050565b60008054906101000a900473ffffffffffffffffffffffffffffffffffffffff1673ffffffffffffffffffffffffffffffffffffffff163373ffffffffffffffffffffffffffffffffffffffff16146104a4576040517f08c379a000000000000000000000000000000000000000000000000000000000815260040161049b90610dca565b60405180910390fd5b600160008154809291906104b790610dea565b9190505550600360405180604001604052808381526020016000815250908060018154018082558091505060019003906000526020600020906002020160009091909190915060008201518160000190816105129190610fde565b5060208201518160010155505050565b60026020528060005260406000206000915090508060000160009054906101000a900460ff16908060010154905082565b60008054906101000a900473ffffffffffffffffffffffffffffffffffffffff1681565b60606000805b6003805490508110156106a357816003828154811061059f5761059e610cc6565b5b906000526020600020906002020160010154111561069057600381815481106105cb576105ca610cc6565b5b9060005260206000209060020201600101549150600381815481106105f3576105f2610cc6565b5b9060005260206000209060020201600001805461060f90610bbd565b80601f016020809104026020016040519081016040528092919081815260200182805461063b90610bbd565b80156106885780601f1061065d57610100808354040283529160200191610688565b820191906000526020600020905b81548152906001019060200180831161066b57829003601f168201915b505050505092505b808061069b90610dea565b91505061057d565b505090565b60008054906101000a900473ffffffffffffffffffffffffffffffffffffffff1673ffffffffffffffffffffffffffffffffffffffff163373ffffffffffffffffffffffffffffffffffffffff1614610736576040517f08c379a000000000000000000000000000000000000000000000000000000000815260040161072d90610dca565b60405180910390fd5b6000600260008373ffffffffffffffffffffffffffffffffffffffff1673ffffffffffffffffffffffffffffffffffffffff16815260200190815260200160002060000160006101000a81548160ff02191690831515021790555050565b6000819050919050565b6107a781610794565b82525050565b60006020820190506107c2600083018461079e565b92915050565b6000604051905090565b600080fd5b600080fd5b6107e581610794565b81146107f057600080fd5b50565b600081359050610802816107dc565b92915050565b60006020828403121561081e5761081d6107d2565b5b600061082c848285016107f3565b91505092915050565b600081519050919050565b600082825260208201905092915050565b60005b8381101561086f578082015181840152602081019050610854565b60008484015250505050565b6000601f19601f8301169050919050565b600061089782610835565b6108a18185610840565b93506108b1818560208601610851565b6108ba8161087b565b840191505092915050565b600060408201905081810360008301526108df818561088c565b90506108ee602083018461079e565b9392505050565b600080fd5b600080fd5b7f4e487b7100000000000000000000000000000000000000000000000000000000600052604160045260246000fd5b6109378261087b565b810181811067ffffffffffffffff82111715610956576109556108ff565b5b80604052505050565b60006109696107c8565b9050610975828261092e565b919050565b600067ffffffffffffffff821115610995576109946108ff565b5b61099e8261087b565b9050602081019050919050565b82818337600083830152505050565b60006109cd6109c88461097a565b61095f565b9050828152602081018484840111156109e9576109e86108fa565b5b6109f48482856109ab565b509392505050565b600082601f830112610a1157610a106108f5565b5b8135610a218482602086016109ba565b91505092915050565b600060208284031215610a4057610a3f6107d2565b5b600082013567ffffffffffffffff811115610a5e57610a5d6107d7565b5b610a6a848285016109fc565b91505092915050565b600073ffffffffffffffffffffffffffffffffffffffff82169050919050565b6000610a9e82610a73565b9050919050565b610aae81610a93565b8114610ab957600080fd5b50565b600081359050610acb81610aa5565b92915050565b600060208284031215610ae757610ae66107d2565b5b6000610af584828501610abc565b91505092915050565b60008115159050919050565b610b1381610afe565b82525050565b6000604082019050610b2e6000830185610b0a565b610b3b602083018461079e565b9392505050565b610b4b81610a93565b82525050565b6000602082019050610b666000830184610b42565b92915050565b60006020820190508181036000830152610b86818461088c565b905092915050565b7f4e487b7100000000000000000000000000000000000000000000000000000000600052602260045260246000fd5b60006002820490506001821680610bd557607f821691505b602082108103610be857610be7610b8e565b5b50919050565b7f596f75206861766520616c726561647920766f7465642e000000000000000000600082015250565b6000610c24601783610840565b9150610c2f82610bee565b602082019050919050565b60006020820190508181036000830152610c5381610c17565b9050919050565b7f496e76616c69642063616e64696461746520696e6465782e0000000000000000600082015250565b6000610c90601883610840565b9150610c9b82610c5a565b602082019050919050565b60006020820190508181036000830152610cbf81610c83565b9050919050565b7f4e487b7100000000000000000000000000000000000000000000000000000000600052603260045260246000fd5b7f4e487b7100000000000000000000000000000000000000000000000000000000600052601160045260246000fd5b6000610d2f82610794565b9150610d3a83610794565b9250828201905080821115610d5257610d51610cf5565b5b92915050565b7f4f6e6c7920656c656374696f6e206c65616465722063616e207265676973746560008201527f7220766f746572732e0000000000000000000000000000000000000000000000602082015250565b6000610db4602983610840565b9150610dbf82610d58565b604082019050919050565b60006020820190508181036000830152610de381610da7565b9050919050565b6000610df582610794565b91507fffffffffffffffffffffffffffffffffffffffffffffffffffffffffffffffff8203610e2757610e26610cf5565b5b600182019050919050565b60008190508160005260206000209050919050565b60006020601f8301049050919050565b600082821b905092915050565b600060088302610e947fffffffffffffffffffffffffffffffffffffffffffffffffffffffffffffffff82610e57565b610e9e8683610e57565b95508019841693508086168417925050509392505050565b6000819050919050565b6000610edb610ed6610ed184610794565b610eb6565b610794565b9050919050565b6000819050919050565b610ef583610ec0565b610f09610f0182610ee2565b848454610e64565b825550505050565b600090565b610f1e610f11565b610f29818484610eec565b505050565b5b81811015610f4d57610f42600082610f16565b600181019050610f2f565b5050565b601f821115610f9257610f6381610e32565b610f6c84610e47565b81016020851015610f7b578190505b610f8f610f8785610e47565b830182610f2e565b50505b505050565b600082821c905092915050565b6000610fb560001984600802610f97565b1980831691505092915050565b6000610fce8383610fa4565b9150826002028217905092915050565b610fe782610835565b67ffffffffffffffff81111561100057610fff6108ff565b5b61100a8254610bbd565b611015828285610f51565b600060209050601f8311600181146110485760008415611036578287015190505b6110408582610fc2565b8655506110a8565b601f19841661105686610e32565b60005b8281101561107e57848901518255600182019150602085019450602081019050611059565b8683101561109b5784890151611097601f891682610fa4565b8355505b6001600288020188555050505b50505050505056fea2646970667358221220f4cad052b50699d3d5f0e2948ee7036ba2ee3e7f530d2faf22a9ad382bf103b264736f6c63430008130033",
  "immutableReferences": {},
  "source": " // SPDX-License-Identifier: MIT\r\n   pragma solidity ^0.8.19;\r\n   \r\n   contract Election {\r\n       address public electionLeader;\r\n       uint256 public candidatesCount = 0;\r\n   \r\n   \r\n       constructor(){\r\n           electionLeader = msg.sender; // electionLeader is the one who deploy the contract\r\n       }\r\n   \r\n       modifier onlyByElectionLeader{ // Modifier to restrict access to certain functions in the contract\r\n           require(msg.sender == electionLeader, \"Only election leader can register voters.\");\r\n           _;\r\n       }\r\n   \r\n       struct Voter {\r\n           bool voted;   // To track if a voter has voted\r\n           uint256 vote; // To store the vote cast by the voter\r\n       }\r\n       mapping(address => Voter) public voters; // Mapping to store the voter details\r\n   \r\n   \r\n       struct Candidate {\r\n           string name;       // Name of the candidate\r\n           uint256 voteCount; // Number of votes the candidate has received\r\n       }\r\n   \r\n       Candidate[] public candidates; // Array to store the candidates\r\n   \r\n       function addCandidate(string memory _name) public onlyByElectionLeader{\r\n           candidatesCount++;\r\n           candidates.push(Candidate(_name, 0));\r\n       }\r\n   \r\n   \r\n       function registerVoters(address _voter) public onlyByElectionLeader{\r\n           voters[_voter].voted = false;\r\n       }\r\n   \r\n       function castVote(uint256 _candidateIndex) public {\r\n           require(!voters[msg.sender].voted, \"You have already voted.\");\r\n           require(candidatesCount > 0, \"Invalid candidate index.\");\r\n           voters[msg.sender].voted = true;\r\n           voters[msg.sender].vote = _candidateIndex;\r\n           candidates[_candidateIndex].voteCount += 1;\r\n       }\r\n   \r\n      function winningCandidate() public view returns (string memory winnerName) {\r\n           uint256 winningVoteCount = 0;\r\n           for (uint256 i = 0; i < candidates.length; i++) {\r\n               if (candidates[i].voteCount > winningVoteCount) {\r\n                   winningVoteCount = candidates[i].voteCount;\r\n                   winnerName = candidates[i].name;\r\n               }\r\n           }\r\n       }\r\n   }",
  "sourcePath": "D:\\Dev\\Ethereum\\IP-Protection\\contracts\\Election.sol",
  "compiler": {
    "name": "solc",
    "version": "0.8.19+commit.7dd6d404.Emscripten.clang"
  },
  "schemaVersion": "3.4.16",
  "updatedAt": "2025-03-24T15:41:19.002Z",
  "devdoc": {
    "kind": "dev",
    "methods": {},
    "version": 1
  },
  "userdoc": {
    "kind": "user",
    "methods": {},
    "version": 1
  }
}