{
  "contractName": "PatientRegistry",
  "abi": [
    {
      "anonymous": false,
      "inputs": [
        {
          "indexed": true,
          "internalType": "address",
          "name": "patientAddress",
          "type": "address"
        },
        {
          "indexed": false,
          "internalType": "string",
          "name": "dataHash",
          "type": "string"
        },
        {
          "indexed": false,
          "internalType": "uint256",
          "name": "timestamp",
          "type": "uint256"
        }
      ],
      "name": "PatientRegistered",
      "type": "event"
    },
    {
      "inputs": [
        {
          "internalType": "address",
          "name": "patientAddress",
          "type": "address"
        },
        {
          "internalType": "string",
          "name": "dataHash",
          "type": "string"
        }
      ],
      "name": "registerPatient",
      "outputs": [],
      "stateMutability": "nonpayable",
      "type": "function"
    },
    {
      "inputs": [
        {
          "internalType": "address",
          "name": "patientAddress",
          "type": "address"
        }
      ],
      "name": "getPatientRecord",
      "outputs": [
        {
          "components": [
            {
              "internalType": "string",
              "name": "dataHash",
              "type": "string"
            },
            {
              "internalType": "uint256",
              "name": "timestamp",
              "type": "uint256"
            }
          ],
          "internalType": "struct PatientRegistry.PatientRecord",
          "name": "",
          "type": "tuple"
        }
      ],
      "stateMutability": "view",
      "type": "function",
      "constant": true
    }
  ],
  "bytecode": "0x608060405234801561001057600080fd5b5061093a806100206000396000f3fe608060405234801561001057600080fd5b50600436106100365760003560e01c8063186071741461003b5780638048c2f01461006b575b600080fd5b610055600480360381019061005091906102d7565b610087565b60405161006291906103ea565b60405180910390f35b61008560048036038101906100809190610541565b61017b565b005b61008f61024b565b6000808373ffffffffffffffffffffffffffffffffffffffff1673ffffffffffffffffffffffffffffffffffffffff1681526020019081526020016000206040518060400160405290816000820180546100e8906105cc565b80601f0160208091040260200160405190810160405280929190818152602001828054610114906105cc565b80156101615780601f1061013657610100808354040283529160200191610161565b820191906000526020600020905b81548152906001019060200180831161014457829003601f168201915b505050505081526020016001820154815250509050919050565b60006040518060400160405280838152602001428152509050806000808573ffffffffffffffffffffffffffffffffffffffff1673ffffffffffffffffffffffffffffffffffffffff16815260200190815260200160002060008201518160000190816101e891906107a9565b50602082015181600101559050508273ffffffffffffffffffffffffffffffffffffffff167f096f893428730b9f440cde9930f6fbd450ce2d7ac1f2895f0d869da7376a36d1834260405161023e9291906108d4565b60405180910390a2505050565b604051806040016040528060608152602001600081525090565b6000604051905090565b600080fd5b600080fd5b600073ffffffffffffffffffffffffffffffffffffffff82169050919050565b60006102a482610279565b9050919050565b6102b481610299565b81146102bf57600080fd5b50565b6000813590506102d1816102ab565b92915050565b6000602082840312156102ed576102ec61026f565b5b60006102fb848285016102c2565b91505092915050565b600081519050919050565b600082825260208201905092915050565b60005b8381101561033e578082015181840152602081019050610323565b60008484015250505050565b6000601f19601f8301169050919050565b600061036682610304565b610370818561030f565b9350610380818560208601610320565b6103898161034a565b840191505092915050565b6000819050919050565b6103a781610394565b82525050565b600060408301600083015184820360008601526103ca828261035b565b91505060208301516103df602086018261039e565b508091505092915050565b6000602082019050818103600083015261040481846103ad565b905092915050565b600080fd5b600080fd5b7f4e487b7100000000000000000000000000000000000000000000000000000000600052604160045260246000fd5b61044e8261034a565b810181811067ffffffffffffffff8211171561046d5761046c610416565b5b80604052505050565b6000610480610265565b905061048c8282610445565b919050565b600067ffffffffffffffff8211156104ac576104ab610416565b5b6104b58261034a565b9050602081019050919050565b82818337600083830152505050565b60006104e46104df84610491565b610476565b905082815260208101848484011115610500576104ff610411565b5b61050b8482856104c2565b509392505050565b600082601f8301126105285761052761040c565b5b81356105388482602086016104d1565b91505092915050565b600080604083850312156105585761055761026f565b5b6000610566858286016102c2565b925050602083013567ffffffffffffffff81111561058757610586610274565b5b61059385828601610513565b9150509250929050565b7f4e487b7100000000000000000000000000000000000000000000000000000000600052602260045260246000fd5b600060028204905060018216806105e457607f821691505b6020821081036105f7576105f661059d565b5b50919050565b60008190508160005260206000209050919050565b60006020601f8301049050919050565b600082821b905092915050565b60006008830261065f7fffffffffffffffffffffffffffffffffffffffffffffffffffffffffffffffff82610622565b6106698683610622565b95508019841693508086168417925050509392505050565b6000819050919050565b60006106a66106a161069c84610394565b610681565b610394565b9050919050565b6000819050919050565b6106c08361068b565b6106d46106cc826106ad565b84845461062f565b825550505050565b600090565b6106e96106dc565b6106f48184846106b7565b505050565b5b818110156107185761070d6000826106e1565b6001810190506106fa565b5050565b601f82111561075d5761072e816105fd565b61073784610612565b81016020851015610746578190505b61075a61075285610612565b8301826106f9565b50505b505050565b600082821c905092915050565b600061078060001984600802610762565b1980831691505092915050565b6000610799838361076f565b9150826002028217905092915050565b6107b282610304565b67ffffffffffffffff8111156107cb576107ca610416565b5b6107d582546105cc565b6107e082828561071c565b600060209050601f8311600181146108135760008415610801578287015190505b61080b858261078d565b865550610873565b601f198416610821866105fd565b60005b8281101561084957848901518255600182019150602085019450602081019050610824565b868310156108665784890151610862601f89168261076f565b8355505b6001600288020188555050505b505050505050565b600082825260208201905092915050565b600061089782610304565b6108a1818561087b565b93506108b1818560208601610320565b6108ba8161034a565b840191505092915050565b6108ce81610394565b82525050565b600060408201905081810360008301526108ee818561088c565b90506108fd60208301846108c5565b939250505056fea26469706673582212205dba4c4d4e23519426593c0b6047f9f978e085f15f1f0ccb063dbad44f5fb32164736f6c63430008130033",
  "immutableReferences": {},
  "source": "// SPDX-License-Identifier: MIT\r\npragma solidity ^0.8.19;\r\n\r\ncontract PatientRegistry {\r\n    struct PatientRecord {\r\n        string dataHash;\r\n        uint256 timestamp;\r\n    }\r\n    \r\n    mapping(address => PatientRecord) private patientRecords;\r\n    \r\n    event PatientRegistered(address indexed patientAddress, string dataHash, uint256 timestamp);\r\n\r\n    function registerPatient(address patientAddress, string memory dataHash) public {\r\n        PatientRecord memory newRecord = PatientRecord({\r\n            dataHash: dataHash,\r\n            timestamp: block.timestamp\r\n        });\r\n        \r\n        // Overwrite the existing record for the patient address\r\n        patientRecords[patientAddress] = newRecord;\r\n        \r\n        emit PatientRegistered(patientAddress, dataHash, block.timestamp);\r\n    }\r\n\r\n    function getPatientRecord(address patientAddress) public view returns (PatientRecord memory) {\r\n        return patientRecords[patientAddress];\r\n    }\r\n}\r\n",
  "sourcePath": "D:\\Dev\\Ethereum\\IP-Protection\\contracts\\PatientRegistry.sol",
  "compiler": {
    "name": "solc",
    "version": "0.8.19+commit.7dd6d404.Emscripten.clang"
  },
  "schemaVersion": "3.4.16",
  "updatedAt": "2025-03-29T04:13:29.789Z",
  "networkType": "ethereum",
  "devdoc": {
    "kind": "dev",
    "methods": {},
    "version": 1
  },
  "userdoc": {
    "kind": "user",
    "methods": {},
    "version": 1
  }
}